:020000040800F2
:10000000041000208101000881010008810100081E
:1000100081010008810100088101000880B500AF5E
:1000200000F009F800BF80BD80B500AF012000F0EE
:100030002FF800BF80BD80B500AF002000F028F889
:1000400000BF80BD80B500AF024800F005F800BFDA
:1000500080BD00BFC027090080B483B000AF7860C6
:1000600002E07B68013B7B607B68002BF9D100BF1D
:100070000C37BD4680BC704780B400AF034B1B6893
:10008000DBB21846BD4680BC704700BF080801407F
:1000900080B483B000AF78607B68012B06D10A4B37
:1000A0001B68094A43F40053136008E07B68002B87
:1000B00005D1054B1B68044A23F40053136000BFAD
:1000C0000C37BD4680BC70470C08014080B400AFBF
:1000D0000F4B1B680E4A43F0040313600D4B1B6863
:1000E0000C4A23F4700313600A4B0A4A1B6813601E
:1000F000094B1B68084A23F470031360064B1B6806
:10010000054A43F02233136000BFBD4680BC7047F0
:1001100018100240000801400408014080B582B078
:1001200000AFFFF7D3FF00F023F803467B607B6846
:10013000064A1268934203D3FFF776FFFFF782FF68
:10014000FFF779FF00F00AF8EDE700BF000000209C
:1001500080B400AF00BFBD4680BC704780B500AF23
:100160000248FFF779FF00BF80BD00BFA0860100F5
:1001700080B500AFFFF780FF0346184680BD00BF83
:1001800080B586B000AF194A194BD31A7B60194B62
:100190007B61174B3B610023FB600AE07A69531CCB
:1001A0007B613B69591C396112781A70FB68013315
:1001B000FB60FA687B689A42F0D30F4A0F4BD31A60
:1001C0003B600023BB6007E03B695A1C3A61002298
:1001D0001A70BB680133BB60BA683B689A42F3D3BC
:1001E000FFF79CFF00BF1837BD4680BD040000200C
:1001F000000000200002000804000020040000208D
:0402000014000000E6
:0400000508000000EF
:00000001FF
