:100000000C942A000C949C000C949C000C949C0072
:100010000C949C000C949C000C949C000C949C00F0
:100020000C949C000C949C000C949C000C949C00E0
:100030000C949C000C949C000C949C000C949C00D0
:100040000C949C000C949C000C949C000C949C00C0
:100050000C949C0011241FBECFE5D8E0DEBFCDBFBD
:0C0060000E9436000C949100F894FFCF31
:10006C00CF93DF9300D000D0CDB7DEB781B38061E2
:10007C0081BB81B3806281BB81B3806481BB81B35E
:10008C00806881BB85E090E09C838B832CC02B81A6
:10009C003C8181E090E002C0880F991F2A95E2F71D
:1000AC0092B3892B82BB1A82198205C089819A81ED
:1000BC0001969A83898389819A8180369A4EB0F30E
:1000CC002B813C8181E090E002C0880F991F2A951A
:1000DC00E2F78095909592B3892382BB8B819C81AA
:1000EC0001969C838B838B819C81089780F282B3D1
:1000FC00806182BB1A82198205C089819A8101961E
:10010C009A83898389819A8180369A4EB0F382B31F
:06011C008F7E82BBB7CF0D
:10012200EC010E94A1000E94A000CE010E94A20048
:06013200CE010E949E00B8
:040138000C94000023
:04013C000E943400E9
:02014000089520
:0201420008951E
:0201440008951C
:00000001FF
