:100000000C942A000C9436000C9455000C94740047
:100010000C94B8000C94B8000C94B8000C94B80080
:100020000C94B8000C94B8000C94B8000C94B80070
:100030000C94B8000C94B8000C94B8000C94B80060
:100040000C94B8000C94B8000C94B8000C94B80050
:100050000C94B80011241FBECFE5D8E0DEBFCDBFA1
:0C0060000E9493000C94AD00F894FFCFB8
:10006C001F920F920FB60F9211242F938F939F9381
:10007C0082B3806282BB2FE784E89EE121508040EE
:10008C009040E1F700C0000082B38F7D82BB9F914E
:0E009C008F912F910F900FBE0F901F9018950F
:1000AA001F920F920FB60F9211242F938F939F9343
:1000BA0082B3806482BB2FE784E89EE121508040AE
:1000CA009040E1F700C0000082B38F7B82BB9F9112
:0E00DA008F912F910F900FBE0F901F901895D1
:1000E8001F920F920FB60F9211242F938F939F9305
:1000F80082B3806882BB2FE784E89EE1215080406C
:100108009040E1F700C0000082B38F7782BB9F91D7
:0E0118008F912F910F900FBE0F901F90189592
:1001260081B3806E81BB81B38B7F81BB81B3877FB7
:1001360081BB87B38B7F87BB85B7807F85BF85B73C
:10014600856085BF84B78F7B84BF8BB7806E8BBF7E
:040156007894FFCFCB
:10015A00EC010E94BD000E94BC00CE010E94BE00BC
:06016A00CE010E94BA0064
:040170000C940000EB
:040174000E943400B1
:020178000895E8
:02017A000895E6
:02017C000895E4
:00000001FF
