S01200006C63645F6B65797061642E7372656302
S11300000C942A000C943F000C943F000C943F0085
S11300100C943F000C943F000C943F000C943F0060
S11300200C943F000C943F000C943F000C943F0050
S11300300C943F000C943F000C943F000C943F0040
S11300400C943F000C943F000C943F000C943F0030
S11300500C943F0011241FBECFE5D8E0DEBFCDBF16
S113006010E0A0E6B0E0ECE0F2E002C005900D92F2
S1130070AE37B107D9F70E94E3000C9404010C9445
S11300800000C39A2FE986E891E021508040904017
S1130090E1F700C00000C39808958AB38F708ABB4B
S11300A0C29AC1980E9441008AB3806F8ABBC298E9
S11300B00895CF93C82F0E944D008BB38F709C2F4F
S11300C0907F892B8BBB88B3897F88BB0E944100BA
S11300D08BB3282F2F7030E1C39FC0011124822BD2
S11300E08BBB88B3897F88BB0E944100CF91089560
S11300F081E00E94590008958FE493EC0197F1F791
S113010000C0000087B38E6087BB88B3817F88BB43
S11301108FEF8ABB8BE792E90197F1F700C00000EB
S11301200E94780082E00E94590088E20E945900EF
S113013086E00E94590080E80E9459008FE00E94E6
S113014059000895CF93C82F8BB38F709C2F907F45
S1130150892B8BBBC19AC2980E9441008BB3282F74
S11301602F7030E1C39FC0011124822B8BBBC19A35
S1130170C2980E944100CF9108950F931F93CF938B
S1130180DF938C01C0E0D0E014C021960E94A2004D
S1130190C031D10521F480EC0E9459000AC0C0325C
S11301A0D10539F40E94780080E80E945900C0E02B
S11301B0D0E0F80181918F018111E7CFDF91CF91D8
S11301C01F910F9108950E947C0080E690E00E94A8
S11301D0BD002FEF88E09DE3215080409040E1F77F
S11301E000C000000E94780081E790E00E94BD00FA
S11301F02FEF88E09DE3215080409040E1F700C05C
S10F020000000E947800E1CFF894FFCFCA
S113020C4C6561726E5F496E5F44657074682E2E26
S111021C0045737261612047616265720000E3
S9030000FC
